{
  "contractName": "rockPaperScissors",
  "abi": [
    {
      "inputs": [
        {
          "internalType": "address",
          "name": "tokenAddress",
          "type": "address"
        }
      ],
      "stateMutability": "nonpayable",
      "type": "constructor"
    },
    {
      "inputs": [
        {
          "internalType": "address",
          "name": "",
          "type": "address"
        }
      ],
      "name": "balances",
      "outputs": [
        {
          "internalType": "uint256",
          "name": "",
          "type": "uint256"
        }
      ],
      "stateMutability": "view",
      "type": "function",
      "constant": true
    },
    {
      "inputs": [],
      "name": "nextGameId",
      "outputs": [
        {
          "internalType": "uint256",
          "name": "",
          "type": "uint256"
        }
      ],
      "stateMutability": "view",
      "type": "function",
      "constant": true
    },
    {
      "inputs": [
        {
          "internalType": "uint256",
          "name": "amount",
          "type": "uint256"
        }
      ],
      "name": "deposit",
      "outputs": [],
      "stateMutability": "nonpayable",
      "type": "function"
    },
    {
      "inputs": [
        {
          "internalType": "uint256",
          "name": "amount",
          "type": "uint256"
        }
      ],
      "name": "withdraw",
      "outputs": [],
      "stateMutability": "nonpayable",
      "type": "function"
    },
    {
      "inputs": [
        {
          "internalType": "address",
          "name": "opponent",
          "type": "address"
        },
        {
          "internalType": "uint256",
          "name": "stake",
          "type": "uint256"
        },
        {
          "internalType": "enum rockPaperScissors.Move",
          "name": "move",
          "type": "uint8"
        }
      ],
      "name": "startGame",
      "outputs": [],
      "stateMutability": "nonpayable",
      "type": "function"
    },
    {
      "inputs": [],
      "name": "getPendingGameDetails",
      "outputs": [
        {
          "internalType": "uint256",
          "name": "id",
          "type": "uint256"
        },
        {
          "internalType": "uint256",
          "name": "stake",
          "type": "uint256"
        },
        {
          "internalType": "address",
          "name": "opponent",
          "type": "address"
        }
      ],
      "stateMutability": "view",
      "type": "function",
      "constant": true
    },
    {
      "inputs": [
        {
          "internalType": "uint256",
          "name": "id",
          "type": "uint256"
        },
        {
          "internalType": "enum rockPaperScissors.Move",
          "name": "move",
          "type": "uint8"
        }
      ],
      "name": "makeMove",
      "outputs": [],
      "stateMutability": "nonpayable",
      "type": "function"
    },
    {
      "inputs": [],
      "name": "getBalance",
      "outputs": [
        {
          "internalType": "uint256",
          "name": "",
          "type": "uint256"
        }
      ],
      "stateMutability": "nonpayable",
      "type": "function"
    },
    {
      "inputs": [
        {
          "internalType": "uint256",
          "name": "id",
          "type": "uint256"
        }
      ],
      "name": "cancelGame",
      "outputs": [
        {
          "internalType": "bool",
          "name": "success",
          "type": "bool"
        }
      ],
      "stateMutability": "nonpayable",
      "type": "function"
    }
  ],
  "bytecode": "0x608060405260006001553480156200001657600080fd5b5060405162002f2838038062002f2883398181016040528101906200003c9190620000ee565b80600360006101000a81548173ffffffffffffffffffffffffffffffffffffffff021916908373ffffffffffffffffffffffffffffffffffffffff1602179055505062000120565b600080fd5b600073ffffffffffffffffffffffffffffffffffffffff82169050919050565b6000620000b68262000089565b9050919050565b620000c881620000a9565b8114620000d457600080fd5b50565b600081519050620000e881620000bd565b92915050565b60006020828403121562000107576200010662000084565b5b60006200011784828501620000d7565b91505092915050565b612df880620001306000396000f3fe608060405234801561001057600080fd5b50600436106100935760003560e01c806369958ab91161006657806369958ab9146101225780637fd6f7c414610152578063b07d782f1461016e578063b135bbb01461018a578063b6b55f25146101a857610093565b8063075f371e1461009857806312065fe0146100b857806327e235e3146100d65780632e1a7d4d14610106575b600080fd5b6100a06101c4565b6040516100af93929190612433565b60405180910390f35b6100c061048b565b6040516100cd919061246a565b60405180910390f35b6100f060048036038101906100eb91906124b6565b6104d6565b6040516100fd919061246a565b60405180910390f35b610120600480360381019061011b919061250f565b6104ee565b005b61013c6004803603810190610137919061250f565b610668565b6040516101499190612557565b60405180910390f35b61016c60048036038101906101679190612597565b610857565b005b610188600480360381019061018391906125d7565b611ba4565b005b6101926122d8565b60405161019f919061246a565b60405180910390f35b6101c260048036038101906101bd919061250f565b6122de565b005b600080600080600090505b600280549050811015610485573373ffffffffffffffffffffffffffffffffffffffff16600282815481106102075761020661262a565b5b906000526020600020906005020160010160009054906101000a900473ffffffffffffffffffffffffffffffffffffffff1673ffffffffffffffffffffffffffffffffffffffff1614806102cb57503373ffffffffffffffffffffffffffffffffffffffff16600282815481106102815761028061262a565b5b906000526020600020906005020160020160009054906101000a900473ffffffffffffffffffffffffffffffffffffffff1673ffffffffffffffffffffffffffffffffffffffff16145b801561030d575060001515600282815481106102ea576102e961262a565b5b906000526020600020906005020160040160159054906101000a900460ff161515145b1561047257600281815481106103265761032561262a565b5b90600052602060002090600502016000015493506002818154811061034e5761034d61262a565b5b90600052602060002090600502016003015492503373ffffffffffffffffffffffffffffffffffffffff166002828154811061038d5761038c61262a565b5b906000526020600020906005020160010160009054906101000a900473ffffffffffffffffffffffffffffffffffffffff1673ffffffffffffffffffffffffffffffffffffffff16141561042857600281815481106103ef576103ee61262a565b5b906000526020600020906005020160020160009054906101000a900473ffffffffffffffffffffffffffffffffffffffff169150610471565b6002818154811061043c5761043b61262a565b5b906000526020600020906005020160010160009054906101000a900473ffffffffffffffffffffffffffffffffffffffff1691505b5b808061047d90612688565b9150506101cf565b50909192565b6000806000803373ffffffffffffffffffffffffffffffffffffffff1673ffffffffffffffffffffffffffffffffffffffff1681526020019081526020016000205490508091505090565b60006020528060005260406000206000915090505481565b806000803373ffffffffffffffffffffffffffffffffffffffff1673ffffffffffffffffffffffffffffffffffffffff16815260200190815260200160002054101561056f576040517f08c379a00000000000000000000000000000000000000000000000000000000081526004016105669061272e565b60405180910390fd5b806000803373ffffffffffffffffffffffffffffffffffffffff1673ffffffffffffffffffffffffffffffffffffffff16815260200190815260200160002060008282546105bd919061274e565b92505081905550600360009054906101000a900473ffffffffffffffffffffffffffffffffffffffff1673ffffffffffffffffffffffffffffffffffffffff1663a9059cbb33836040518363ffffffff1660e01b8152600401610621929190612782565b6020604051808303816000875af1158015610640573d6000803e3d6000fd5b505050506040513d601f19601f8201168201806040525081019061066491906127d7565b5050565b60003373ffffffffffffffffffffffffffffffffffffffff16600283815481106106955761069461262a565b5b906000526020600020906005020160010160009054906101000a900473ffffffffffffffffffffffffffffffffffffffff1673ffffffffffffffffffffffffffffffffffffffff16148061075957503373ffffffffffffffffffffffffffffffffffffffff166002838154811061070f5761070e61262a565b5b906000526020600020906005020160020160009054906101000a900473ffffffffffffffffffffffffffffffffffffffff1673ffffffffffffffffffffffffffffffffffffffff16145b801561079b575060001515600283815481106107785761077761262a565b5b906000526020600020906005020160040160159054906101000a900460ff161515145b15610852576001600283815481106107b6576107b561262a565b5b906000526020600020906005020160040160166101000a81548160ff0219169083151502179055506001600283815481106107f4576107f361262a565b5b906000526020600020906005020160040160156101000a81548160ff021916908315150217905550600282815481106108305761082f61262a565b5b906000526020600020906005020160040160159054906101000a900460ff1690505b919050565b6002828154811061086b5761086a61262a565b5b906000526020600020906005020160010160009054906101000a900473ffffffffffffffffffffffffffffffffffffffff1673ffffffffffffffffffffffffffffffffffffffff163373ffffffffffffffffffffffffffffffffffffffff16141561090b576040517f08c379a000000000000000000000000000000000000000000000000000000000815260040161090290612850565b60405180910390fd5b6002828154811061091f5761091e61262a565b5b906000526020600020906005020160030154600080600285815481106109485761094761262a565b5b906000526020600020906005020160010160009054906101000a900473ffffffffffffffffffffffffffffffffffffffff1673ffffffffffffffffffffffffffffffffffffffff1673ffffffffffffffffffffffffffffffffffffffff1681526020019081526020016000205410156109f6576040517f08c379a00000000000000000000000000000000000000000000000000000000081526004016109ed9061292e565b60405180910390fd5b60028281548110610a0a57610a0961262a565b5b9060005260206000209060050201600301546000803373ffffffffffffffffffffffffffffffffffffffff1673ffffffffffffffffffffffffffffffffffffffff168152602001908152602001600020541015610a9c576040517f08c379a0000000000000000000000000000000000000000000000000000000008152600401610a93906129e6565b60405180910390fd5b60006003811115610ab057610aaf612a06565b5b816003811115610ac357610ac2612a06565b5b1415610b04576040517f08c379a0000000000000000000000000000000000000000000000000000000008152600401610afb90612a81565b60405180910390fd5b6003816003811115610b1957610b18612a06565b5b1115610b5a576040517f08c379a0000000000000000000000000000000000000000000000000000000008152600401610b5190612a81565b60405180910390fd5b60028281548110610b6e57610b6d61262a565b5b906000526020600020906005020160010160149054906101000a900460ff166003811115610b9f57610b9e612a06565b5b816003811115610bb257610bb1612a06565b5b1415610c3957600160028381548110610bce57610bcd61262a565b5b906000526020600020906005020160040160146101000a81548160ff021916908315150217905550600160028381548110610c0c57610c0b61262a565b5b906000526020600020906005020160040160156101000a81548160ff021916908315150217905550611ba0565b60016003811115610c4d57610c4c612a06565b5b816003811115610c6057610c5f612a06565b5b148015610cc3575060026003811115610c7c57610c7b612a06565b5b60028381548110610c9057610c8f61262a565b5b906000526020600020906005020160010160149054906101000a900460ff166003811115610cc157610cc0612a06565b5b145b15610eed5760028281548110610cdc57610cdb61262a565b5b906000526020600020906005020160010160009054906101000a900473ffffffffffffffffffffffffffffffffffffffff1660028381548110610d2257610d2161262a565b5b906000526020600020906005020160040160006101000a81548173ffffffffffffffffffffffffffffffffffffffff021916908373ffffffffffffffffffffffffffffffffffffffff160217905550600160028381548110610d8757610d8661262a565b5b906000526020600020906005020160040160156101000a81548160ff02191690831515021790555060028281548110610dc357610dc261262a565b5b9060005260206000209060050201600301546000803373ffffffffffffffffffffffffffffffffffffffff1673ffffffffffffffffffffffffffffffffffffffff1681526020019081526020016000206000828254610e22919061274e565b9250508190555060028281548110610e3d57610e3c61262a565b5b90600052602060002090600502016003015460008060028581548110610e6657610e6561262a565b5b906000526020600020906005020160010160009054906101000a900473ffffffffffffffffffffffffffffffffffffffff1673ffffffffffffffffffffffffffffffffffffffff1673ffffffffffffffffffffffffffffffffffffffff1681526020019081526020016000206000828254610ee19190612aa1565b92505081905550611b9f565b60016003811115610f0157610f00612a06565b5b816003811115610f1457610f13612a06565b5b148015610f765750600380811115610f2f57610f2e612a06565b5b60028381548110610f4357610f4261262a565b5b906000526020600020906005020160010160149054906101000a900460ff166003811115610f7457610f73612a06565b5b145b1561115b573360028381548110610f9057610f8f61262a565b5b906000526020600020906005020160040160006101000a81548173ffffffffffffffffffffffffffffffffffffffff021916908373ffffffffffffffffffffffffffffffffffffffff160217905550600160028381548110610ff557610ff461262a565b5b906000526020600020906005020160040160156101000a81548160ff021916908315150217905550600282815481106110315761103061262a565b5b9060005260206000209060050201600301546000803373ffffffffffffffffffffffffffffffffffffffff1673ffffffffffffffffffffffffffffffffffffffff16815260200190815260200160002060008282546110909190612aa1565b92505081905550600282815481106110ab576110aa61262a565b5b906000526020600020906005020160030154600080600285815481106110d4576110d361262a565b5b906000526020600020906005020160010160009054906101000a900473ffffffffffffffffffffffffffffffffffffffff1673ffffffffffffffffffffffffffffffffffffffff1673ffffffffffffffffffffffffffffffffffffffff168152602001908152602001600020600082825461114f919061274e565b92505081905550611b9e565b6002600381111561116f5761116e612a06565b5b81600381111561118257611181612a06565b5b1480156111e557506001600381111561119e5761119d612a06565b5b600283815481106111b2576111b161262a565b5b906000526020600020906005020160010160149054906101000a900460ff1660038111156111e3576111e2612a06565b5b145b156113ca5733600283815481106111ff576111fe61262a565b5b906000526020600020906005020160040160006101000a81548173ffffffffffffffffffffffffffffffffffffffff021916908373ffffffffffffffffffffffffffffffffffffffff1602179055506001600283815481106112645761126361262a565b5b906000526020600020906005020160040160156101000a81548160ff021916908315150217905550600282815481106112a05761129f61262a565b5b9060005260206000209060050201600301546000803373ffffffffffffffffffffffffffffffffffffffff1673ffffffffffffffffffffffffffffffffffffffff16815260200190815260200160002060008282546112ff9190612aa1565b925050819055506002828154811061131a5761131961262a565b5b906000526020600020906005020160030154600080600285815481106113435761134261262a565b5b906000526020600020906005020160010160009054906101000a900473ffffffffffffffffffffffffffffffffffffffff1673ffffffffffffffffffffffffffffffffffffffff1673ffffffffffffffffffffffffffffffffffffffff16815260200190815260200160002060008282546113be919061274e565b92505081905550611b9d565b600260038111156113de576113dd612a06565b5b8160038111156113f1576113f0612a06565b5b148015611453575060038081111561140c5761140b612a06565b5b600283815481106114205761141f61262a565b5b906000526020600020906005020160010160149054906101000a900460ff16600381111561145157611450612a06565b5b145b1561167d576002828154811061146c5761146b61262a565b5b906000526020600020906005020160010160009054906101000a900473ffffffffffffffffffffffffffffffffffffffff16600283815481106114b2576114b161262a565b5b906000526020600020906005020160040160006101000a81548173ffffffffffffffffffffffffffffffffffffffff021916908373ffffffffffffffffffffffffffffffffffffffff1602179055506001600283815481106115175761151661262a565b5b906000526020600020906005020160040160156101000a81548160ff021916908315150217905550600282815481106115535761155261262a565b5b9060005260206000209060050201600301546000803373ffffffffffffffffffffffffffffffffffffffff1673ffffffffffffffffffffffffffffffffffffffff16815260200190815260200160002060008282546115b2919061274e565b92505081905550600282815481106115cd576115cc61262a565b5b906000526020600020906005020160030154600080600285815481106115f6576115f561262a565b5b906000526020600020906005020160010160009054906101000a900473ffffffffffffffffffffffffffffffffffffffff1673ffffffffffffffffffffffffffffffffffffffff1673ffffffffffffffffffffffffffffffffffffffff16815260200190815260200160002060008282546116719190612aa1565b92505081905550611b9c565b6003808111156116905761168f612a06565b5b8160038111156116a3576116a2612a06565b5b1480156117065750600160038111156116bf576116be612a06565b5b600283815481106116d3576116d261262a565b5b906000526020600020906005020160010160149054906101000a900460ff16600381111561170457611703612a06565b5b145b15611930576002828154811061171f5761171e61262a565b5b906000526020600020906005020160010160009054906101000a900473ffffffffffffffffffffffffffffffffffffffff16600283815481106117655761176461262a565b5b906000526020600020906005020160040160006101000a81548173ffffffffffffffffffffffffffffffffffffffff021916908373ffffffffffffffffffffffffffffffffffffffff1602179055506001600283815481106117ca576117c961262a565b5b906000526020600020906005020160040160156101000a81548160ff021916908315150217905550600282815481106118065761180561262a565b5b9060005260206000209060050201600301546000803373ffffffffffffffffffffffffffffffffffffffff1673ffffffffffffffffffffffffffffffffffffffff1681526020019081526020016000206000828254611865919061274e565b92505081905550600282815481106118805761187f61262a565b5b906000526020600020906005020160030154600080600285815481106118a9576118a861262a565b5b906000526020600020906005020160010160009054906101000a900473ffffffffffffffffffffffffffffffffffffffff1673ffffffffffffffffffffffffffffffffffffffff1673ffffffffffffffffffffffffffffffffffffffff16815260200190815260200160002060008282546119249190612aa1565b92505081905550611b9b565b60038081111561194357611942612a06565b5b81600381111561195657611955612a06565b5b1480156119b957506002600381111561197257611971612a06565b5b600283815481106119865761198561262a565b5b906000526020600020906005020160010160149054906101000a900460ff1660038111156119b7576119b6612a06565b5b145b15611b9a5733600283815481106119d3576119d261262a565b5b906000526020600020906005020160040160006101000a81548173ffffffffffffffffffffffffffffffffffffffff021916908373ffffffffffffffffffffffffffffffffffffffff160217905550600160028381548110611a3857611a3761262a565b5b906000526020600020906005020160040160156101000a81548160ff02191690831515021790555060028281548110611a7457611a7361262a565b5b9060005260206000209060050201600301546000803373ffffffffffffffffffffffffffffffffffffffff1673ffffffffffffffffffffffffffffffffffffffff1681526020019081526020016000206000828254611ad39190612aa1565b9250508190555060028281548110611aee57611aed61262a565b5b90600052602060002090600502016003015460008060028581548110611b1757611b1661262a565b5b906000526020600020906005020160010160009054906101000a900473ffffffffffffffffffffffffffffffffffffffff1673ffffffffffffffffffffffffffffffffffffffff1673ffffffffffffffffffffffffffffffffffffffff1681526020019081526020016000206000828254611b92919061274e565b925050819055505b5b5b5b5b5b5b5050565b816000803373ffffffffffffffffffffffffffffffffffffffff1673ffffffffffffffffffffffffffffffffffffffff168152602001908152602001600020541015611c25576040517f08c379a0000000000000000000000000000000000000000000000000000000008152600401611c1c90612b43565b60405180910390fd5b816000808573ffffffffffffffffffffffffffffffffffffffff1673ffffffffffffffffffffffffffffffffffffffff168152602001908152602001600020541015611ca6576040517f08c379a0000000000000000000000000000000000000000000000000000000008152600401611c9d90612bd5565b60405180910390fd5b60006003811115611cba57611cb9612a06565b5b816003811115611ccd57611ccc612a06565b5b1415611d0e576040517f08c379a0000000000000000000000000000000000000000000000000000000008152600401611d0590612a81565b60405180910390fd5b6003816003811115611d2357611d22612a06565b5b1115611d64576040517f08c379a0000000000000000000000000000000000000000000000000000000008152600401611d5b90612a81565b60405180910390fd5b60005b600280549050811015612029576000151560028281548110611d8c57611d8b61262a565b5b906000526020600020906005020160040160159054906101000a900460ff1615151415612016573373ffffffffffffffffffffffffffffffffffffffff1660028281548110611dde57611ddd61262a565b5b906000526020600020906005020160010160009054906101000a900473ffffffffffffffffffffffffffffffffffffffff1673ffffffffffffffffffffffffffffffffffffffff1614158015611ea557503373ffffffffffffffffffffffffffffffffffffffff1660028281548110611e5a57611e5961262a565b5b906000526020600020906005020160020160009054906101000a900473ffffffffffffffffffffffffffffffffffffffff1673ffffffffffffffffffffffffffffffffffffffff1614155b611ee4576040517f08c379a0000000000000000000000000000000000000000000000000000000008152600401611edb90612c8d565b60405180910390fd5b8373ffffffffffffffffffffffffffffffffffffffff1660028281548110611f0f57611f0e61262a565b5b906000526020600020906005020160010160009054906101000a900473ffffffffffffffffffffffffffffffffffffffff1673ffffffffffffffffffffffffffffffffffffffff1614158015611fd657508373ffffffffffffffffffffffffffffffffffffffff1660028281548110611f8b57611f8a61262a565b5b906000526020600020906005020160020160009054906101000a900473ffffffffffffffffffffffffffffffffffffffff1673ffffffffffffffffffffffffffffffffffffffff1614155b612015576040517f08c379a000000000000000000000000000000000000000000000000000000000815260040161200c90612d6b565b60405180910390fd5b5b808061202190612688565b915050611d67565b50600260405180610140016040528060015481526020013373ffffffffffffffffffffffffffffffffffffffff16815260200183600381111561206f5761206e612a06565b5b81526020018573ffffffffffffffffffffffffffffffffffffffff168152602001600060038111156120a4576120a3612a06565b5b8152602001848152602001600073ffffffffffffffffffffffffffffffffffffffff1681526020016000151581526020016000151581526020016000151581525090806001815401808255809150506001900390600052602060002090600502016000909190919091506000820151816000015560208201518160010160006101000a81548173ffffffffffffffffffffffffffffffffffffffff021916908373ffffffffffffffffffffffffffffffffffffffff16021790555060408201518160010160146101000a81548160ff0219169083600381111561218a57612189612a06565b5b021790555060608201518160020160006101000a81548173ffffffffffffffffffffffffffffffffffffffff021916908373ffffffffffffffffffffffffffffffffffffffff16021790555060808201518160020160146101000a81548160ff0219169083600381111561220157612200612a06565b5b021790555060a0820151816003015560c08201518160040160006101000a81548173ffffffffffffffffffffffffffffffffffffffff021916908373ffffffffffffffffffffffffffffffffffffffff16021790555060e08201518160040160146101000a81548160ff0219169083151502179055506101008201518160040160156101000a81548160ff0219169083151502179055506101208201518160040160166101000a81548160ff0219169083151502179055505050600160008154809291906122ce90612688565b9190505550505050565b60015481565b600360009054906101000a900473ffffffffffffffffffffffffffffffffffffffff1673ffffffffffffffffffffffffffffffffffffffff166323b872dd3330846040518463ffffffff1660e01b815260040161233d93929190612d8b565b6020604051808303816000875af115801561235c573d6000803e3d6000fd5b505050506040513d601f19601f8201168201806040525081019061238091906127d7565b50806000803373ffffffffffffffffffffffffffffffffffffffff1673ffffffffffffffffffffffffffffffffffffffff16815260200190815260200160002060008282546123cf9190612aa1565b9250508190555050565b6000819050919050565b6123ec816123d9565b82525050565b600073ffffffffffffffffffffffffffffffffffffffff82169050919050565b600061241d826123f2565b9050919050565b61242d81612412565b82525050565b600060608201905061244860008301866123e3565b61245560208301856123e3565b6124626040830184612424565b949350505050565b600060208201905061247f60008301846123e3565b92915050565b600080fd5b61249381612412565b811461249e57600080fd5b50565b6000813590506124b08161248a565b92915050565b6000602082840312156124cc576124cb612485565b5b60006124da848285016124a1565b91505092915050565b6124ec816123d9565b81146124f757600080fd5b50565b600081359050612509816124e3565b92915050565b60006020828403121561252557612524612485565b5b6000612533848285016124fa565b91505092915050565b60008115159050919050565b6125518161253c565b82525050565b600060208201905061256c6000830184612548565b92915050565b6004811061257f57600080fd5b50565b60008135905061259181612572565b92915050565b600080604083850312156125ae576125ad612485565b5b60006125bc858286016124fa565b92505060206125cd85828601612582565b9150509250929050565b6000806000606084860312156125f0576125ef612485565b5b60006125fe868287016124a1565b935050602061260f868287016124fa565b925050604061262086828701612582565b9150509250925092565b7f4e487b7100000000000000000000000000000000000000000000000000000000600052603260045260246000fd5b7f4e487b7100000000000000000000000000000000000000000000000000000000600052601160045260246000fd5b6000612693826123d9565b91507fffffffffffffffffffffffffffffffffffffffffffffffffffffffffffffffff8214156126c6576126c5612659565b5b600182019050919050565b600082825260208201905092915050565b7f496e73756666696369656e742042616c616e6365210000000000000000000000600082015250565b60006127186015836126d1565b9150612723826126e2565b602082019050919050565b600060208201905081810360008301526127478161270b565b9050919050565b6000612759826123d9565b9150612764836123d9565b92508282101561277757612776612659565b5b828203905092915050565b60006040820190506127976000830185612424565b6127a460208301846123e3565b9392505050565b6127b48161253c565b81146127bf57600080fd5b50565b6000815190506127d1816127ab565b92915050565b6000602082840312156127ed576127ec612485565b5b60006127fb848285016127c2565b91505092915050565b7f596f7527766520706c6179656420796f7572207475726e000000000000000000600082015250565b600061283a6017836126d1565b915061284582612804565b602082019050919050565b600060208201905081810360008301526128698161282d565b9050919050565b7f596f7572206f70706f6e656e742068617320696e73756666696369656e74206260008201527f616c616e63652e2041736b207468656d20746f206d616b652061206465706f7360208201527f697420746f20636f6e74696e7565206f722063616e63656c207468652067616d60408201527f6500000000000000000000000000000000000000000000000000000000000000606082015250565b60006129186061836126d1565b915061292382612870565b608082019050919050565b600060208201905081810360008301526129478161290b565b9050919050565b7f596f75206861766520696e73756666696369656e742062616c616e63652c206d60008201527f616b65206465706f73697420746f20636f6e7472616374206f722064656c657460208201527f65207468652067616d6500000000000000000000000000000000000000000000604082015250565b60006129d0604a836126d1565b91506129db8261294e565b606082019050919050565b600060208201905081810360008301526129ff816129c3565b9050919050565b7f4e487b7100000000000000000000000000000000000000000000000000000000600052602160045260246000fd5b7f496e76616c6964206d6f76652e20456e74657220312c20322c206f7220330000600082015250565b6000612a6b601e836126d1565b9150612a7682612a35565b602082019050919050565b60006020820190508181036000830152612a9a81612a5e565b9050919050565b6000612aac826123d9565b9150612ab7836123d9565b9250827fffffffffffffffffffffffffffffffffffffffffffffffffffffffffffffffff03821115612aec57612aeb612659565b5b828201905092915050565b7f496e73756666696369656e742042616c616e6365000000000000000000000000600082015250565b6000612b2d6014836126d1565b9150612b3882612af7565b602082019050919050565b60006020820190508181036000830152612b5c81612b20565b9050919050565b7f596f7572206f70706f6e656e742068617320696e73756666696369656e74206260008201527f616c616e636520746f2070617274697061746500000000000000000000000000602082015250565b6000612bbf6033836126d1565b9150612bca82612b63565b604082019050919050565b60006020820190508181036000830152612bee81612bb2565b9050919050565b7f596f752063616e206f6e6c7920706172746963697061746520696e206f6e652060008201527f67616d6520617420612074696d652e20436f6d706c657465206f722063616e6360208201527f656c20796f75722070656e64696e672067616d65000000000000000000000000604082015250565b6000612c776054836126d1565b9150612c8282612bf5565b606082019050919050565b60006020820190508181036000830152612ca681612c6a565b9050919050565b7f596f7572206f70706f6e656e742063616e206f6e6c792070617274696369706160008201527f746520696e206f6e652067616d6520617420612074696d652e2041736b20746860208201527f656d20746f20636f6d706c657465206f722063616e63656c207468656972207060408201527f656e64696e672067616d65000000000000000000000000000000000000000000606082015250565b6000612d55606b836126d1565b9150612d6082612cad565b608082019050919050565b60006020820190508181036000830152612d8481612d48565b9050919050565b6000606082019050612da06000830186612424565b612dad6020830185612424565b612dba60408301846123e3565b94935050505056fea2646970667358221220deab5b25e02807f9dcc9cf482844d3c27d573014f33d6ace6dd00d54bf2d98a864736f6c634300080a0033",
  "immutableReferences": {},
  "source": "// SPDX-License-Identifier: MIT\n\npragma solidity ^0.8.0;\npragma abicoder v2;\n\nimport \"../node_modules/@openzeppelin/contracts/token/ERC20/IERC20.sol\";\n\ncontract rockPaperScissors{\n    constructor(address tokenAddress){\n        GameTokenAddress=tokenAddress;\n    }\n    mapping(address=>uint) public balances;\n\n    uint public nextGameId=0;\n    enum Move {\n        NULL,\n        ROCK,\n        PAPER,\n        SCISSORS\n    }\n    struct Game {\n        uint id;\n        address player1;\n        Move p1Move;\n        address player2;\n        Move p2Move;\n        uint stake;\n        address winner;\n        bool tie;\n        bool gameOver;\n        bool canceled;\n    }\n\n    Game[] Games;\n\n    address GameTokenAddress;\n\n    function deposit(uint amount) external {\n        IERC20(GameTokenAddress).transferFrom(msg.sender, address(this), amount);\n        balances[msg.sender]+=amount;\n    }\n\n    function withdraw(uint amount) external {\n        require(balances[msg.sender]>=amount, \"Insufficient Balance!\");\n        balances[msg.sender]-=amount;\n        IERC20(GameTokenAddress).transfer(msg.sender, amount);\n    }\n\n    function startGame(address opponent, uint stake, Move move) external {\n        require(balances[msg.sender] >= stake, \"Insufficient Balance\");\n        require(balances[opponent] >= stake, \"Your opponent has insufficient balance to partipate\");\n        require(move!=Move.NULL, \"Invalid move. Enter 1, 2, or 3\");\n        require(uint(move)<=3, \"Invalid move. Enter 1, 2, or 3\");\n        for (uint i=0; i<Games.length; i++){\n            if (Games[i].gameOver==false){\n                require(Games[i].player1 != msg.sender && Games[i].player2 != msg.sender, \"You can only participate in one game at a time. Complete or cancel your pending game\");\n                require(Games[i].player1 != opponent && Games[i].player2 != opponent, \"Your opponent can only participate in one game at a time. Ask them to complete or cancel their pending game\");\n            }\n        }\n        Games.push(\n            Game(nextGameId, msg.sender, move, opponent, Move.NULL, stake, 0x0000000000000000000000000000000000000000, false, false, false)\n        );\n        nextGameId++;\n    }\n\n    function getPendingGameDetails() external view returns(uint id, uint stake, address opponent){\n        for (uint i=0; i<Games.length; i++){\n            if ((Games[i].player1==msg.sender || Games[i].player2==msg.sender) && Games[i].gameOver==false){\n                id=Games[i].id;\n                stake=Games[i].stake;\n                if (Games[i].player1==msg.sender){\n                    opponent=Games[i].player2;\n                }else{\n                    opponent=Games[i].player1;\n                }\n            }\n        }\n    }\n\n    function makeMove(uint id, Move move) external {\n        require(msg.sender!=Games[id].player1, \"You've played your turn\");\n        require(balances[Games[id].player1]>=Games[id].stake, \"Your opponent has insufficient balance. Ask them to make a deposit to continue or cancel the game\");\n        require(balances[msg.sender]>=Games[id].stake, \"You have insufficient balance, make deposit to contract or delete the game\");\n        require(move!=Move.NULL, \"Invalid move. Enter 1, 2, or 3\");\n        require(uint(move)<=3, \"Invalid move. Enter 1, 2, or 3\");\n\n        if (move==Games[id].p1Move){\n            Games[id].tie=true;\n            Games[id].gameOver=true;\n        }else if(move==Move.ROCK && Games[id].p1Move==Move.PAPER){\n            Games[id].winner=Games[id].player1;\n            Games[id].gameOver=true;\n            balances[msg.sender]-=Games[id].stake;\n            balances[Games[id].player1]+=Games[id].stake;\n        }else if(move==Move.ROCK && Games[id].p1Move==Move.SCISSORS){\n            Games[id].winner=msg.sender;\n            Games[id].gameOver=true;\n            balances[msg.sender]+=Games[id].stake;\n            balances[Games[id].player1]-=Games[id].stake;\n        }else if(move==Move.PAPER && Games[id].p1Move==Move.ROCK){\n            Games[id].winner=msg.sender;\n            Games[id].gameOver=true;\n            balances[msg.sender]+=Games[id].stake;\n            balances[Games[id].player1]-=Games[id].stake;\n        }else if(move==Move.PAPER && Games[id].p1Move==Move.SCISSORS){\n            Games[id].winner=Games[id].player1;\n            Games[id].gameOver=true;\n            balances[msg.sender]-=Games[id].stake;\n            balances[Games[id].player1]+=Games[id].stake;\n        }else if(move==Move.SCISSORS && Games[id].p1Move==Move.ROCK){\n            Games[id].winner=Games[id].player1;\n            Games[id].gameOver=true;\n            balances[msg.sender]-=Games[id].stake;\n            balances[Games[id].player1]+=Games[id].stake;\n        }else if(move==Move.SCISSORS && Games[id].p1Move==Move.PAPER){\n            Games[id].winner=msg.sender;\n            Games[id].gameOver=true;\n            balances[msg.sender]+=Games[id].stake;\n            balances[Games[id].player1]-=Games[id].stake;\n        }\n    }\n\n    function getBalance() external returns(uint){\n        uint balance;\n        balance=balances[msg.sender];\n        return balance;\n    }\n\n    function cancelGame(uint id) external returns(bool success){\n        if ((Games[id].player1==msg.sender || Games[id].player2==msg.sender) && Games[id].gameOver==false){\n            Games[id].canceled=true;\n            Games[id].gameOver=true;\n            success=Games[id].gameOver;\n        }\n    }\n    \n\n}",
  "sourcePath": "/Users/nerdjango/Dev/rockPaperScissors/contracts/rockPaperScissors.sol",
  "compiler": {
    "name": "solc",
    "version": "0.8.10+commit.fc410830.Emscripten.clang"
  },
  "schemaVersion": "3.4.3",
  "updatedAt": "2021-11-26T11:24:31.010Z",
  "networkType": "ethereum",
  "devdoc": {
    "kind": "dev",
    "methods": {},
    "version": 1
  },
  "userdoc": {
    "kind": "user",
    "methods": {},
    "version": 1
  }
}