{
  "contractName": "RockPaperScissors",
  "abi": [
    {
      "inputs": [
        {
          "internalType": "address",
          "name": "tokenAddress",
          "type": "address"
        }
      ],
      "stateMutability": "nonpayable",
      "type": "constructor"
    },
    {
      "inputs": [
        {
          "internalType": "address",
          "name": "",
          "type": "address"
        }
      ],
      "name": "balances",
      "outputs": [
        {
          "internalType": "uint256",
          "name": "",
          "type": "uint256"
        }
      ],
      "stateMutability": "view",
      "type": "function",
      "constant": true
    },
    {
      "inputs": [],
      "name": "nextGameId",
      "outputs": [
        {
          "internalType": "uint256",
          "name": "",
          "type": "uint256"
        }
      ],
      "stateMutability": "view",
      "type": "function",
      "constant": true
    },
    {
      "inputs": [
        {
          "internalType": "uint256",
          "name": "amount",
          "type": "uint256"
        }
      ],
      "name": "deposit",
      "outputs": [],
      "stateMutability": "nonpayable",
      "type": "function"
    },
    {
      "inputs": [
        {
          "internalType": "uint256",
          "name": "amount",
          "type": "uint256"
        }
      ],
      "name": "withdraw",
      "outputs": [],
      "stateMutability": "nonpayable",
      "type": "function"
    },
    {
      "inputs": [
        {
          "internalType": "address",
          "name": "opponent",
          "type": "address"
        },
        {
          "internalType": "uint256",
          "name": "stake",
          "type": "uint256"
        },
        {
          "internalType": "enum RockPaperScissors.Move",
          "name": "move",
          "type": "uint8"
        }
      ],
      "name": "startGame",
      "outputs": [],
      "stateMutability": "nonpayable",
      "type": "function"
    },
    {
      "inputs": [],
      "name": "getPendingGameDetails",
      "outputs": [
        {
          "internalType": "uint256",
          "name": "id",
          "type": "uint256"
        },
        {
          "internalType": "uint256",
          "name": "stake",
          "type": "uint256"
        },
        {
          "internalType": "address",
          "name": "opponent",
          "type": "address"
        }
      ],
      "stateMutability": "view",
      "type": "function",
      "constant": true
    },
    {
      "inputs": [
        {
          "internalType": "uint256",
          "name": "id",
          "type": "uint256"
        },
        {
          "internalType": "enum RockPaperScissors.Move",
          "name": "move",
          "type": "uint8"
        }
      ],
      "name": "makeMove",
      "outputs": [],
      "stateMutability": "nonpayable",
      "type": "function"
    },
    {
      "inputs": [
        {
          "internalType": "uint256",
          "name": "id",
          "type": "uint256"
        }
      ],
      "name": "cancelGame",
      "outputs": [],
      "stateMutability": "nonpayable",
      "type": "function"
    }
  ],
  "bytecode": "0x608060405260006001553480156200001657600080fd5b50604051620030b0380380620030b083398181016040528101906200003c9190620000ee565b80600360006101000a81548173ffffffffffffffffffffffffffffffffffffffff021916908373ffffffffffffffffffffffffffffffffffffffff1602179055505062000120565b600080fd5b600073ffffffffffffffffffffffffffffffffffffffff82169050919050565b6000620000b68262000089565b9050919050565b620000c881620000a9565b8114620000d457600080fd5b50565b600081519050620000e881620000bd565b92915050565b60006020828403121562000107576200010662000084565b5b60006200011784828501620000d7565b91505092915050565b612f8080620001306000396000f3fe608060405234801561001057600080fd5b50600436106100885760003560e01c80637fd6f7c41161005b5780637fd6f7c414610115578063b07d782f14610131578063b135bbb01461014d578063b6b55f251461016b57610088565b8063075f371e1461008d57806327e235e3146100ad5780632e1a7d4d146100dd57806369958ab9146100f9575b600080fd5b610095610187565b6040516100a493929190612553565b60405180910390f35b6100c760048036038101906100c291906125bb565b61044e565b6040516100d491906125e8565b60405180910390f35b6100f760048036038101906100f2919061262f565b610466565b005b610113600480360381019061010e919061262f565b6105e0565b005b61012f600480360381019061012a9190612681565b6108c4565b005b61014b600480360381019061014691906126c1565b611cc4565b005b6101556123f8565b60405161016291906125e8565b60405180910390f35b6101856004803603810190610180919061262f565b6123fe565b005b600080600080600090505b600280549050811015610448573373ffffffffffffffffffffffffffffffffffffffff16600282815481106101ca576101c9612714565b5b906000526020600020906005020160010160009054906101000a900473ffffffffffffffffffffffffffffffffffffffff1673ffffffffffffffffffffffffffffffffffffffff16148061028e57503373ffffffffffffffffffffffffffffffffffffffff166002828154811061024457610243612714565b5b906000526020600020906005020160020160009054906101000a900473ffffffffffffffffffffffffffffffffffffffff1673ffffffffffffffffffffffffffffffffffffffff16145b80156102d0575060001515600282815481106102ad576102ac612714565b5b906000526020600020906005020160040160159054906101000a900460ff161515145b1561043557600281815481106102e9576102e8612714565b5b90600052602060002090600502016000015493506002818154811061031157610310612714565b5b90600052602060002090600502016003015492503373ffffffffffffffffffffffffffffffffffffffff16600282815481106103505761034f612714565b5b906000526020600020906005020160010160009054906101000a900473ffffffffffffffffffffffffffffffffffffffff1673ffffffffffffffffffffffffffffffffffffffff1614156103eb57600281815481106103b2576103b1612714565b5b906000526020600020906005020160020160009054906101000a900473ffffffffffffffffffffffffffffffffffffffff169150610434565b600281815481106103ff576103fe612714565b5b906000526020600020906005020160010160009054906101000a900473ffffffffffffffffffffffffffffffffffffffff1691505b5b808061044090612772565b915050610192565b50909192565b60006020528060005260406000206000915090505481565b806000803373ffffffffffffffffffffffffffffffffffffffff1673ffffffffffffffffffffffffffffffffffffffff1681526020019081526020016000205410156104e7576040517f08c379a00000000000000000000000000000000000000000000000000000000081526004016104de90612818565b60405180910390fd5b806000803373ffffffffffffffffffffffffffffffffffffffff1673ffffffffffffffffffffffffffffffffffffffff16815260200190815260200160002060008282546105359190612838565b92505081905550600360009054906101000a900473ffffffffffffffffffffffffffffffffffffffff1673ffffffffffffffffffffffffffffffffffffffff1663a9059cbb33836040518363ffffffff1660e01b815260040161059992919061286c565b6020604051808303816000875af11580156105b8573d6000803e3d6000fd5b505050506040513d601f19601f820116820180604052508101906105dc91906128cd565b5050565b600281815481106105f4576105f3612714565b5b906000526020600020906005020160020160009054906101000a900473ffffffffffffffffffffffffffffffffffffffff1673ffffffffffffffffffffffffffffffffffffffff163373ffffffffffffffffffffffffffffffffffffffff1614806106cf57506002818154811061066e5761066d612714565b5b906000526020600020906005020160010160009054906101000a900473ffffffffffffffffffffffffffffffffffffffff1673ffffffffffffffffffffffffffffffffffffffff163373ffffffffffffffffffffffffffffffffffffffff16145b61070e576040517f08c379a00000000000000000000000000000000000000000000000000000000081526004016107059061296c565b60405180910390fd5b3373ffffffffffffffffffffffffffffffffffffffff166002828154811061073957610738612714565b5b906000526020600020906005020160010160009054906101000a900473ffffffffffffffffffffffffffffffffffffffff1673ffffffffffffffffffffffffffffffffffffffff1614806107fd57503373ffffffffffffffffffffffffffffffffffffffff16600282815481106107b3576107b2612714565b5b906000526020600020906005020160020160009054906101000a900473ffffffffffffffffffffffffffffffffffffffff1673ffffffffffffffffffffffffffffffffffffffff16145b801561083f5750600015156002828154811061081c5761081b612714565b5b906000526020600020906005020160040160159054906101000a900460ff161515145b156108c15760016002828154811061085a57610859612714565b5b906000526020600020906005020160040160166101000a81548160ff02191690831515021790555060016002828154811061089857610897612714565b5b906000526020600020906005020160040160156101000a81548160ff0219169083151502179055505b50565b600282815481106108d8576108d7612714565b5b906000526020600020906005020160010160009054906101000a900473ffffffffffffffffffffffffffffffffffffffff1673ffffffffffffffffffffffffffffffffffffffff163373ffffffffffffffffffffffffffffffffffffffff161415610978576040517f08c379a000000000000000000000000000000000000000000000000000000000815260040161096f906129d8565b60405180910390fd5b6002828154811061098c5761098b612714565b5b906000526020600020906005020160020160009054906101000a900473ffffffffffffffffffffffffffffffffffffffff1673ffffffffffffffffffffffffffffffffffffffff163373ffffffffffffffffffffffffffffffffffffffff1614610a2b576040517f08c379a0000000000000000000000000000000000000000000000000000000008152600401610a22906129d8565b60405180910390fd5b60028281548110610a3f57610a3e612714565b5b90600052602060002090600502016003015460008060028581548110610a6857610a67612714565b5b906000526020600020906005020160010160009054906101000a900473ffffffffffffffffffffffffffffffffffffffff1673ffffffffffffffffffffffffffffffffffffffff1673ffffffffffffffffffffffffffffffffffffffff168152602001908152602001600020541015610b16576040517f08c379a0000000000000000000000000000000000000000000000000000000008152600401610b0d90612ab6565b60405180910390fd5b60028281548110610b2a57610b29612714565b5b9060005260206000209060050201600301546000803373ffffffffffffffffffffffffffffffffffffffff1673ffffffffffffffffffffffffffffffffffffffff168152602001908152602001600020541015610bbc576040517f08c379a0000000000000000000000000000000000000000000000000000000008152600401610bb390612b6e565b60405180910390fd5b60006003811115610bd057610bcf612b8e565b5b816003811115610be357610be2612b8e565b5b1415610c24576040517f08c379a0000000000000000000000000000000000000000000000000000000008152600401610c1b90612c09565b60405180910390fd5b6003816003811115610c3957610c38612b8e565b5b1115610c7a576040517f08c379a0000000000000000000000000000000000000000000000000000000008152600401610c7190612c09565b60405180910390fd5b60028281548110610c8e57610c8d612714565b5b906000526020600020906005020160010160149054906101000a900460ff166003811115610cbf57610cbe612b8e565b5b816003811115610cd257610cd1612b8e565b5b1415610d5957600160028381548110610cee57610ced612714565b5b906000526020600020906005020160040160146101000a81548160ff021916908315150217905550600160028381548110610d2c57610d2b612714565b5b906000526020600020906005020160040160156101000a81548160ff021916908315150217905550611cc0565b60016003811115610d6d57610d6c612b8e565b5b816003811115610d8057610d7f612b8e565b5b148015610de3575060026003811115610d9c57610d9b612b8e565b5b60028381548110610db057610daf612714565b5b906000526020600020906005020160010160149054906101000a900460ff166003811115610de157610de0612b8e565b5b145b1561100d5760028281548110610dfc57610dfb612714565b5b906000526020600020906005020160010160009054906101000a900473ffffffffffffffffffffffffffffffffffffffff1660028381548110610e4257610e41612714565b5b906000526020600020906005020160040160006101000a81548173ffffffffffffffffffffffffffffffffffffffff021916908373ffffffffffffffffffffffffffffffffffffffff160217905550600160028381548110610ea757610ea6612714565b5b906000526020600020906005020160040160156101000a81548160ff02191690831515021790555060028281548110610ee357610ee2612714565b5b9060005260206000209060050201600301546000803373ffffffffffffffffffffffffffffffffffffffff1673ffffffffffffffffffffffffffffffffffffffff1681526020019081526020016000206000828254610f429190612838565b9250508190555060028281548110610f5d57610f5c612714565b5b90600052602060002090600502016003015460008060028581548110610f8657610f85612714565b5b906000526020600020906005020160010160009054906101000a900473ffffffffffffffffffffffffffffffffffffffff1673ffffffffffffffffffffffffffffffffffffffff1673ffffffffffffffffffffffffffffffffffffffff16815260200190815260200160002060008282546110019190612c29565b92505081905550611cbf565b6001600381111561102157611020612b8e565b5b81600381111561103457611033612b8e565b5b148015611096575060038081111561104f5761104e612b8e565b5b6002838154811061106357611062612714565b5b906000526020600020906005020160010160149054906101000a900460ff16600381111561109457611093612b8e565b5b145b1561127b5733600283815481106110b0576110af612714565b5b906000526020600020906005020160040160006101000a81548173ffffffffffffffffffffffffffffffffffffffff021916908373ffffffffffffffffffffffffffffffffffffffff16021790555060016002838154811061111557611114612714565b5b906000526020600020906005020160040160156101000a81548160ff0219169083151502179055506002828154811061115157611150612714565b5b9060005260206000209060050201600301546000803373ffffffffffffffffffffffffffffffffffffffff1673ffffffffffffffffffffffffffffffffffffffff16815260200190815260200160002060008282546111b09190612c29565b92505081905550600282815481106111cb576111ca612714565b5b906000526020600020906005020160030154600080600285815481106111f4576111f3612714565b5b906000526020600020906005020160010160009054906101000a900473ffffffffffffffffffffffffffffffffffffffff1673ffffffffffffffffffffffffffffffffffffffff1673ffffffffffffffffffffffffffffffffffffffff168152602001908152602001600020600082825461126f9190612838565b92505081905550611cbe565b6002600381111561128f5761128e612b8e565b5b8160038111156112a2576112a1612b8e565b5b1480156113055750600160038111156112be576112bd612b8e565b5b600283815481106112d2576112d1612714565b5b906000526020600020906005020160010160149054906101000a900460ff16600381111561130357611302612b8e565b5b145b156114ea57336002838154811061131f5761131e612714565b5b906000526020600020906005020160040160006101000a81548173ffffffffffffffffffffffffffffffffffffffff021916908373ffffffffffffffffffffffffffffffffffffffff16021790555060016002838154811061138457611383612714565b5b906000526020600020906005020160040160156101000a81548160ff021916908315150217905550600282815481106113c0576113bf612714565b5b9060005260206000209060050201600301546000803373ffffffffffffffffffffffffffffffffffffffff1673ffffffffffffffffffffffffffffffffffffffff168152602001908152602001600020600082825461141f9190612c29565b925050819055506002828154811061143a57611439612714565b5b9060005260206000209060050201600301546000806002858154811061146357611462612714565b5b906000526020600020906005020160010160009054906101000a900473ffffffffffffffffffffffffffffffffffffffff1673ffffffffffffffffffffffffffffffffffffffff1673ffffffffffffffffffffffffffffffffffffffff16815260200190815260200160002060008282546114de9190612838565b92505081905550611cbd565b600260038111156114fe576114fd612b8e565b5b81600381111561151157611510612b8e565b5b148015611573575060038081111561152c5761152b612b8e565b5b600283815481106115405761153f612714565b5b906000526020600020906005020160010160149054906101000a900460ff16600381111561157157611570612b8e565b5b145b1561179d576002828154811061158c5761158b612714565b5b906000526020600020906005020160010160009054906101000a900473ffffffffffffffffffffffffffffffffffffffff16600283815481106115d2576115d1612714565b5b906000526020600020906005020160040160006101000a81548173ffffffffffffffffffffffffffffffffffffffff021916908373ffffffffffffffffffffffffffffffffffffffff16021790555060016002838154811061163757611636612714565b5b906000526020600020906005020160040160156101000a81548160ff0219169083151502179055506002828154811061167357611672612714565b5b9060005260206000209060050201600301546000803373ffffffffffffffffffffffffffffffffffffffff1673ffffffffffffffffffffffffffffffffffffffff16815260200190815260200160002060008282546116d29190612838565b92505081905550600282815481106116ed576116ec612714565b5b9060005260206000209060050201600301546000806002858154811061171657611715612714565b5b906000526020600020906005020160010160009054906101000a900473ffffffffffffffffffffffffffffffffffffffff1673ffffffffffffffffffffffffffffffffffffffff1673ffffffffffffffffffffffffffffffffffffffff16815260200190815260200160002060008282546117919190612c29565b92505081905550611cbc565b6003808111156117b0576117af612b8e565b5b8160038111156117c3576117c2612b8e565b5b1480156118265750600160038111156117df576117de612b8e565b5b600283815481106117f3576117f2612714565b5b906000526020600020906005020160010160149054906101000a900460ff16600381111561182457611823612b8e565b5b145b15611a50576002828154811061183f5761183e612714565b5b906000526020600020906005020160010160009054906101000a900473ffffffffffffffffffffffffffffffffffffffff166002838154811061188557611884612714565b5b906000526020600020906005020160040160006101000a81548173ffffffffffffffffffffffffffffffffffffffff021916908373ffffffffffffffffffffffffffffffffffffffff1602179055506001600283815481106118ea576118e9612714565b5b906000526020600020906005020160040160156101000a81548160ff0219169083151502179055506002828154811061192657611925612714565b5b9060005260206000209060050201600301546000803373ffffffffffffffffffffffffffffffffffffffff1673ffffffffffffffffffffffffffffffffffffffff16815260200190815260200160002060008282546119859190612838565b92505081905550600282815481106119a05761199f612714565b5b906000526020600020906005020160030154600080600285815481106119c9576119c8612714565b5b906000526020600020906005020160010160009054906101000a900473ffffffffffffffffffffffffffffffffffffffff1673ffffffffffffffffffffffffffffffffffffffff1673ffffffffffffffffffffffffffffffffffffffff1681526020019081526020016000206000828254611a449190612c29565b92505081905550611cbb565b600380811115611a6357611a62612b8e565b5b816003811115611a7657611a75612b8e565b5b148015611ad9575060026003811115611a9257611a91612b8e565b5b60028381548110611aa657611aa5612714565b5b906000526020600020906005020160010160149054906101000a900460ff166003811115611ad757611ad6612b8e565b5b145b15611cba573360028381548110611af357611af2612714565b5b906000526020600020906005020160040160006101000a81548173ffffffffffffffffffffffffffffffffffffffff021916908373ffffffffffffffffffffffffffffffffffffffff160217905550600160028381548110611b5857611b57612714565b5b906000526020600020906005020160040160156101000a81548160ff02191690831515021790555060028281548110611b9457611b93612714565b5b9060005260206000209060050201600301546000803373ffffffffffffffffffffffffffffffffffffffff1673ffffffffffffffffffffffffffffffffffffffff1681526020019081526020016000206000828254611bf39190612c29565b9250508190555060028281548110611c0e57611c0d612714565b5b90600052602060002090600502016003015460008060028581548110611c3757611c36612714565b5b906000526020600020906005020160010160009054906101000a900473ffffffffffffffffffffffffffffffffffffffff1673ffffffffffffffffffffffffffffffffffffffff1673ffffffffffffffffffffffffffffffffffffffff1681526020019081526020016000206000828254611cb29190612838565b925050819055505b5b5b5b5b5b5b5050565b816000803373ffffffffffffffffffffffffffffffffffffffff1673ffffffffffffffffffffffffffffffffffffffff168152602001908152602001600020541015611d45576040517f08c379a0000000000000000000000000000000000000000000000000000000008152600401611d3c90612ccb565b60405180910390fd5b816000808573ffffffffffffffffffffffffffffffffffffffff1673ffffffffffffffffffffffffffffffffffffffff168152602001908152602001600020541015611dc6576040517f08c379a0000000000000000000000000000000000000000000000000000000008152600401611dbd90612d5d565b60405180910390fd5b60006003811115611dda57611dd9612b8e565b5b816003811115611ded57611dec612b8e565b5b1415611e2e576040517f08c379a0000000000000000000000000000000000000000000000000000000008152600401611e2590612c09565b60405180910390fd5b6003816003811115611e4357611e42612b8e565b5b1115611e84576040517f08c379a0000000000000000000000000000000000000000000000000000000008152600401611e7b90612c09565b60405180910390fd5b60005b600280549050811015612149576000151560028281548110611eac57611eab612714565b5b906000526020600020906005020160040160159054906101000a900460ff1615151415612136573373ffffffffffffffffffffffffffffffffffffffff1660028281548110611efe57611efd612714565b5b906000526020600020906005020160010160009054906101000a900473ffffffffffffffffffffffffffffffffffffffff1673ffffffffffffffffffffffffffffffffffffffff1614158015611fc557503373ffffffffffffffffffffffffffffffffffffffff1660028281548110611f7a57611f79612714565b5b906000526020600020906005020160020160009054906101000a900473ffffffffffffffffffffffffffffffffffffffff1673ffffffffffffffffffffffffffffffffffffffff1614155b612004576040517f08c379a0000000000000000000000000000000000000000000000000000000008152600401611ffb90612e15565b60405180910390fd5b8373ffffffffffffffffffffffffffffffffffffffff166002828154811061202f5761202e612714565b5b906000526020600020906005020160010160009054906101000a900473ffffffffffffffffffffffffffffffffffffffff1673ffffffffffffffffffffffffffffffffffffffff16141580156120f657508373ffffffffffffffffffffffffffffffffffffffff16600282815481106120ab576120aa612714565b5b906000526020600020906005020160020160009054906101000a900473ffffffffffffffffffffffffffffffffffffffff1673ffffffffffffffffffffffffffffffffffffffff1614155b612135576040517f08c379a000000000000000000000000000000000000000000000000000000000815260040161212c90612ef3565b60405180910390fd5b5b808061214190612772565b915050611e87565b50600260405180610140016040528060015481526020013373ffffffffffffffffffffffffffffffffffffffff16815260200183600381111561218f5761218e612b8e565b5b81526020018573ffffffffffffffffffffffffffffffffffffffff168152602001600060038111156121c4576121c3612b8e565b5b8152602001848152602001600073ffffffffffffffffffffffffffffffffffffffff1681526020016000151581526020016000151581526020016000151581525090806001815401808255809150506001900390600052602060002090600502016000909190919091506000820151816000015560208201518160010160006101000a81548173ffffffffffffffffffffffffffffffffffffffff021916908373ffffffffffffffffffffffffffffffffffffffff16021790555060408201518160010160146101000a81548160ff021916908360038111156122aa576122a9612b8e565b5b021790555060608201518160020160006101000a81548173ffffffffffffffffffffffffffffffffffffffff021916908373ffffffffffffffffffffffffffffffffffffffff16021790555060808201518160020160146101000a81548160ff0219169083600381111561232157612320612b8e565b5b021790555060a0820151816003015560c08201518160040160006101000a81548173ffffffffffffffffffffffffffffffffffffffff021916908373ffffffffffffffffffffffffffffffffffffffff16021790555060e08201518160040160146101000a81548160ff0219169083151502179055506101008201518160040160156101000a81548160ff0219169083151502179055506101208201518160040160166101000a81548160ff0219169083151502179055505050600160008154809291906123ee90612772565b9190505550505050565b60015481565b600360009054906101000a900473ffffffffffffffffffffffffffffffffffffffff1673ffffffffffffffffffffffffffffffffffffffff166323b872dd3330846040518463ffffffff1660e01b815260040161245d93929190612f13565b6020604051808303816000875af115801561247c573d6000803e3d6000fd5b505050506040513d601f19601f820116820180604052508101906124a091906128cd565b50806000803373ffffffffffffffffffffffffffffffffffffffff1673ffffffffffffffffffffffffffffffffffffffff16815260200190815260200160002060008282546124ef9190612c29565b9250508190555050565b6000819050919050565b61250c816124f9565b82525050565b600073ffffffffffffffffffffffffffffffffffffffff82169050919050565b600061253d82612512565b9050919050565b61254d81612532565b82525050565b60006060820190506125686000830186612503565b6125756020830185612503565b6125826040830184612544565b949350505050565b600080fd5b61259881612532565b81146125a357600080fd5b50565b6000813590506125b58161258f565b92915050565b6000602082840312156125d1576125d061258a565b5b60006125df848285016125a6565b91505092915050565b60006020820190506125fd6000830184612503565b92915050565b61260c816124f9565b811461261757600080fd5b50565b60008135905061262981612603565b92915050565b6000602082840312156126455761264461258a565b5b60006126538482850161261a565b91505092915050565b6004811061266957600080fd5b50565b60008135905061267b8161265c565b92915050565b600080604083850312156126985761269761258a565b5b60006126a68582860161261a565b92505060206126b78582860161266c565b9150509250929050565b6000806000606084860312156126da576126d961258a565b5b60006126e8868287016125a6565b93505060206126f98682870161261a565b925050604061270a8682870161266c565b9150509250925092565b7f4e487b7100000000000000000000000000000000000000000000000000000000600052603260045260246000fd5b7f4e487b7100000000000000000000000000000000000000000000000000000000600052601160045260246000fd5b600061277d826124f9565b91507fffffffffffffffffffffffffffffffffffffffffffffffffffffffffffffffff8214156127b0576127af612743565b5b600182019050919050565b600082825260208201905092915050565b7f496e73756666696369656e742042616c616e6365210000000000000000000000600082015250565b60006128026015836127bb565b915061280d826127cc565b602082019050919050565b60006020820190508181036000830152612831816127f5565b9050919050565b6000612843826124f9565b915061284e836124f9565b92508282101561286157612860612743565b5b828203905092915050565b60006040820190506128816000830185612544565b61288e6020830184612503565b9392505050565b60008115159050919050565b6128aa81612895565b81146128b557600080fd5b50565b6000815190506128c7816128a1565b92915050565b6000602082840312156128e3576128e261258a565b5b60006128f1848285016128b8565b91505092915050565b7f596f75277265206e6f742061207061727469636970616e74206f66207468697360008201527f2067616d65000000000000000000000000000000000000000000000000000000602082015250565b60006129566025836127bb565b9150612961826128fa565b604082019050919050565b6000602082019050818103600083015261298581612949565b9050919050565b7f596f7527766520706c6179656420796f7572207475726e000000000000000000600082015250565b60006129c26017836127bb565b91506129cd8261298c565b602082019050919050565b600060208201905081810360008301526129f1816129b5565b9050919050565b7f596f7572206f70706f6e656e742068617320696e73756666696369656e74206260008201527f616c616e63652e2041736b207468656d20746f206d616b652061206465706f7360208201527f697420746f20636f6e74696e7565206f722063616e63656c207468652067616d60408201527f6500000000000000000000000000000000000000000000000000000000000000606082015250565b6000612aa06061836127bb565b9150612aab826129f8565b608082019050919050565b60006020820190508181036000830152612acf81612a93565b9050919050565b7f596f75206861766520696e73756666696369656e742062616c616e63652c206d60008201527f616b65206465706f73697420746f20636f6e7472616374206f722064656c657460208201527f65207468652067616d6500000000000000000000000000000000000000000000604082015250565b6000612b58604a836127bb565b9150612b6382612ad6565b606082019050919050565b60006020820190508181036000830152612b8781612b4b565b9050919050565b7f4e487b7100000000000000000000000000000000000000000000000000000000600052602160045260246000fd5b7f496e76616c6964206d6f76652e20456e74657220312c20322c206f7220330000600082015250565b6000612bf3601e836127bb565b9150612bfe82612bbd565b602082019050919050565b60006020820190508181036000830152612c2281612be6565b9050919050565b6000612c34826124f9565b9150612c3f836124f9565b9250827fffffffffffffffffffffffffffffffffffffffffffffffffffffffffffffffff03821115612c7457612c73612743565b5b828201905092915050565b7f496e73756666696369656e742042616c616e6365000000000000000000000000600082015250565b6000612cb56014836127bb565b9150612cc082612c7f565b602082019050919050565b60006020820190508181036000830152612ce481612ca8565b9050919050565b7f596f7572206f70706f6e656e742068617320696e73756666696369656e74206260008201527f616c616e636520746f2070617274697061746500000000000000000000000000602082015250565b6000612d476033836127bb565b9150612d5282612ceb565b604082019050919050565b60006020820190508181036000830152612d7681612d3a565b9050919050565b7f596f752063616e206f6e6c7920706172746963697061746520696e206f6e652060008201527f67616d6520617420612074696d652e20436f6d706c657465206f722063616e6360208201527f656c20796f75722070656e64696e672067616d65000000000000000000000000604082015250565b6000612dff6054836127bb565b9150612e0a82612d7d565b606082019050919050565b60006020820190508181036000830152612e2e81612df2565b9050919050565b7f596f7572206f70706f6e656e742063616e206f6e6c792070617274696369706160008201527f746520696e206f6e652067616d6520617420612074696d652e2041736b20746860208201527f656d20746f20636f6d706c657465206f722063616e63656c207468656972207060408201527f656e64696e672067616d65000000000000000000000000000000000000000000606082015250565b6000612edd606b836127bb565b9150612ee882612e35565b608082019050919050565b60006020820190508181036000830152612f0c81612ed0565b9050919050565b6000606082019050612f286000830186612544565b612f356020830185612544565b612f426040830184612503565b94935050505056fea2646970667358221220924c9e6cc3f8485fdd7605498c799f0ea4222f57e7279c4b67015fce80247c2a64736f6c634300080a0033",
  "immutableReferences": {},
  "source": "// SPDX-License-Identifier: MIT\n\npragma solidity ^0.8.0;\npragma abicoder v2;\n\nimport \"../node_modules/@openzeppelin/contracts/token/ERC20/IERC20.sol\";\n\ncontract RockPaperScissors{\n    constructor(address tokenAddress){\n        GameTokenAddress=tokenAddress;\n    }\n    mapping(address=>uint) public balances;\n\n    uint public nextGameId=0;\n    enum Move {\n        NULL,\n        ROCK,\n        PAPER,\n        SCISSORS\n    }\n    struct Game {\n        uint id;\n        address player1;\n        Move p1Move;\n        address player2;\n        Move p2Move;\n        uint stake;\n        address winner;\n        bool tie;\n        bool gameOver;\n        bool canceled;\n    }\n\n    Game[] Games;\n\n    address GameTokenAddress;\n\n    function deposit(uint amount) external {\n        IERC20(GameTokenAddress).transferFrom(msg.sender, address(this), amount);\n        balances[msg.sender]+=amount;\n    }\n\n    function withdraw(uint amount) external {\n        require(balances[msg.sender]>=amount, \"Insufficient Balance!\");\n        balances[msg.sender]-=amount;\n        IERC20(GameTokenAddress).transfer(msg.sender, amount);\n    }\n\n    function startGame(address opponent, uint stake, Move move) external {\n        require(balances[msg.sender] >= stake, \"Insufficient Balance\");\n        require(balances[opponent] >= stake, \"Your opponent has insufficient balance to partipate\");\n        require(move!=Move.NULL, \"Invalid move. Enter 1, 2, or 3\");\n        require(uint(move)<=3, \"Invalid move. Enter 1, 2, or 3\");\n        for (uint i=0; i<Games.length; i++){\n            if (Games[i].gameOver==false){\n                require(Games[i].player1 != msg.sender && Games[i].player2 != msg.sender, \"You can only participate in one game at a time. Complete or cancel your pending game\");\n                require(Games[i].player1 != opponent && Games[i].player2 != opponent, \"Your opponent can only participate in one game at a time. Ask them to complete or cancel their pending game\");\n            }\n        }\n        Games.push(\n            Game(nextGameId, msg.sender, move, opponent, Move.NULL, stake, 0x0000000000000000000000000000000000000000, false, false, false)\n        );\n        nextGameId++;\n    }\n\n    function getPendingGameDetails() external view returns(uint id, uint stake, address opponent){\n        for (uint i=0; i<Games.length; i++){\n            if ((Games[i].player1==msg.sender || Games[i].player2==msg.sender) && Games[i].gameOver==false){\n                id=Games[i].id;\n                stake=Games[i].stake;\n                if (Games[i].player1==msg.sender){\n                    opponent=Games[i].player2;\n                }else{\n                    opponent=Games[i].player1;\n                }\n            }\n        }\n    }\n\n    function makeMove(uint id, Move move) external {\n        require(msg.sender!=Games[id].player1, \"You've played your turn\");\n        require(msg.sender==Games[id].player2, \"You've played your turn\");\n        require(balances[Games[id].player1]>=Games[id].stake, \"Your opponent has insufficient balance. Ask them to make a deposit to continue or cancel the game\");\n        require(balances[msg.sender]>=Games[id].stake, \"You have insufficient balance, make deposit to contract or delete the game\");\n        require(move!=Move.NULL, \"Invalid move. Enter 1, 2, or 3\");\n        require(uint(move)<=3, \"Invalid move. Enter 1, 2, or 3\");\n\n        if (move==Games[id].p1Move){\n            Games[id].tie=true;\n            Games[id].gameOver=true;\n        }else if(move==Move.ROCK && Games[id].p1Move==Move.PAPER){\n            Games[id].winner=Games[id].player1;\n            Games[id].gameOver=true;\n            balances[msg.sender]-=Games[id].stake;\n            balances[Games[id].player1]+=Games[id].stake;\n        }else if(move==Move.ROCK && Games[id].p1Move==Move.SCISSORS){\n            Games[id].winner=msg.sender;\n            Games[id].gameOver=true;\n            balances[msg.sender]+=Games[id].stake;\n            balances[Games[id].player1]-=Games[id].stake;\n        }else if(move==Move.PAPER && Games[id].p1Move==Move.ROCK){\n            Games[id].winner=msg.sender;\n            Games[id].gameOver=true;\n            balances[msg.sender]+=Games[id].stake;\n            balances[Games[id].player1]-=Games[id].stake;\n        }else if(move==Move.PAPER && Games[id].p1Move==Move.SCISSORS){\n            Games[id].winner=Games[id].player1;\n            Games[id].gameOver=true;\n            balances[msg.sender]-=Games[id].stake;\n            balances[Games[id].player1]+=Games[id].stake;\n        }else if(move==Move.SCISSORS && Games[id].p1Move==Move.ROCK){\n            Games[id].winner=Games[id].player1;\n            Games[id].gameOver=true;\n            balances[msg.sender]-=Games[id].stake;\n            balances[Games[id].player1]+=Games[id].stake;\n        }else if(move==Move.SCISSORS && Games[id].p1Move==Move.PAPER){\n            Games[id].winner=msg.sender;\n            Games[id].gameOver=true;\n            balances[msg.sender]+=Games[id].stake;\n            balances[Games[id].player1]-=Games[id].stake;\n        }\n    }\n\n    function cancelGame(uint id) external {\n        require(msg.sender==Games[id].player2 || msg.sender==Games[id].player1, \"You're not a participant of this game\");\n        if ((Games[id].player1==msg.sender || Games[id].player2==msg.sender) && Games[id].gameOver==false){\n            Games[id].canceled=true;\n            Games[id].gameOver=true;\n        }\n    }\n    \n\n}",
  "sourcePath": "/Users/nerdjango/Documents/GitHub/RockPaperScissors-test-project/contracts/rockPaperScissors.sol",
  "compiler": {
    "name": "solc",
    "version": "0.8.10+commit.fc410830.Emscripten.clang"
  },
  "schemaVersion": "3.4.3",
  "updatedAt": "2021-12-02T08:37:22.143Z",
  "networkType": "ethereum",
  "devdoc": {
    "kind": "dev",
    "methods": {},
    "version": 1
  },
  "userdoc": {
    "kind": "user",
    "methods": {},
    "version": 1
  }
}